{
  "contractName": "HMREPSWAP",
  "abi": [
    {
      "constant": true,
      "inputs": [],
      "name": "name",
      "outputs": [
        {
          "name": "",
          "type": "string"
        }
      ],
      "payable": false,
      "stateMutability": "view",
      "type": "function"
    },
    {
      "constant": false,
      "inputs": [
        {
          "name": "addr",
          "type": "address"
        }
      ],
      "name": "removeOwner",
      "outputs": [
        {
          "name": "success",
          "type": "bool"
        }
      ],
      "payable": false,
      "stateMutability": "nonpayable",
      "type": "function"
    },
    {
      "constant": true,
      "inputs": [],
      "name": "totalSupply",
      "outputs": [
        {
          "name": "",
          "type": "uint256"
        }
      ],
      "payable": false,
      "stateMutability": "view",
      "type": "function"
    },
    {
      "constant": true,
      "inputs": [],
      "name": "HASHMratemult",
      "outputs": [
        {
          "name": "",
          "type": "uint256"
        }
      ],
      "payable": false,
      "stateMutability": "view",
      "type": "function"
    },
    {
      "constant": true,
      "inputs": [],
      "name": "HASHMaddress",
      "outputs": [
        {
          "name": "",
          "type": "address"
        }
      ],
      "payable": false,
      "stateMutability": "view",
      "type": "function"
    },
    {
      "constant": true,
      "inputs": [],
      "name": "decimals",
      "outputs": [
        {
          "name": "",
          "type": "uint8"
        }
      ],
      "payable": false,
      "stateMutability": "view",
      "type": "function"
    },
    {
      "constant": false,
      "inputs": [
        {
          "name": "addr",
          "type": "address"
        }
      ],
      "name": "addOwner",
      "outputs": [
        {
          "name": "success",
          "type": "bool"
        }
      ],
      "payable": false,
      "stateMutability": "nonpayable",
      "type": "function"
    },
    {
      "constant": true,
      "inputs": [
        {
          "name": "",
          "type": "address"
        }
      ],
      "name": "balanceOf",
      "outputs": [
        {
          "name": "",
          "type": "uint256"
        }
      ],
      "payable": false,
      "stateMutability": "view",
      "type": "function"
    },
    {
      "constant": true,
      "inputs": [],
      "name": "userRate",
      "outputs": [
        {
          "name": "",
          "type": "uint256"
        }
      ],
      "payable": false,
      "stateMutability": "view",
      "type": "function"
    },
    {
      "constant": true,
      "inputs": [
        {
          "name": "",
          "type": "address"
        }
      ],
      "name": "ownerslist",
      "outputs": [
        {
          "name": "",
          "type": "bool"
        }
      ],
      "payable": false,
      "stateMutability": "view",
      "type": "function"
    },
    {
      "constant": true,
      "inputs": [],
      "name": "symbol",
      "outputs": [
        {
          "name": "",
          "type": "string"
        }
      ],
      "payable": false,
      "stateMutability": "view",
      "type": "function"
    },
    {
      "constant": true,
      "inputs": [
        {
          "name": "",
          "type": "address"
        }
      ],
      "name": "frozenAccount",
      "outputs": [
        {
          "name": "",
          "type": "bool"
        }
      ],
      "payable": false,
      "stateMutability": "view",
      "type": "function"
    },
    {
      "constant": true,
      "inputs": [],
      "name": "HASHMratediv",
      "outputs": [
        {
          "name": "",
          "type": "uint256"
        }
      ],
      "payable": false,
      "stateMutability": "view",
      "type": "function"
    },
    {
      "inputs": [
        {
          "name": "initialSupply",
          "type": "uint256"
        },
        {
          "name": "tokenName",
          "type": "string"
        },
        {
          "name": "tokenSymbol",
          "type": "string"
        }
      ],
      "payable": false,
      "stateMutability": "nonpayable",
      "type": "constructor"
    },
    {
      "anonymous": false,
      "inputs": [
        {
          "indexed": true,
          "name": "from",
          "type": "address"
        },
        {
          "indexed": true,
          "name": "to",
          "type": "address"
        },
        {
          "indexed": false,
          "name": "value",
          "type": "uint256"
        }
      ],
      "name": "Transfer",
      "type": "event"
    },
    {
      "anonymous": false,
      "inputs": [
        {
          "indexed": true,
          "name": "from",
          "type": "address"
        },
        {
          "indexed": false,
          "name": "value",
          "type": "uint256"
        }
      ],
      "name": "Burn",
      "type": "event"
    },
    {
      "anonymous": false,
      "inputs": [
        {
          "indexed": false,
          "name": "target",
          "type": "address"
        },
        {
          "indexed": false,
          "name": "frozen",
          "type": "bool"
        }
      ],
      "name": "FrozenFunds",
      "type": "event"
    },
    {
      "anonymous": false,
      "inputs": [
        {
          "indexed": false,
          "name": "target",
          "type": "address"
        },
        {
          "indexed": false,
          "name": "rate",
          "type": "uint256"
        }
      ],
      "name": "ReputationUserRate",
      "type": "event"
    },
    {
      "anonymous": false,
      "inputs": [
        {
          "indexed": false,
          "name": "_reputationToken",
          "type": "uint256"
        },
        {
          "indexed": false,
          "name": "_securityToken",
          "type": "uint256"
        }
      ],
      "name": "SwapToken",
      "type": "event"
    },
    {
      "anonymous": false,
      "inputs": [
        {
          "indexed": false,
          "name": "addr",
          "type": "address"
        }
      ],
      "name": "OwnerslistAddressAdded",
      "type": "event"
    },
    {
      "anonymous": false,
      "inputs": [
        {
          "indexed": false,
          "name": "addr",
          "type": "address"
        }
      ],
      "name": "OwnerslistAddressRemoved",
      "type": "event"
    },
    {
      "constant": true,
      "inputs": [
        {
          "name": "_owner",
          "type": "address"
        }
      ],
      "name": "balanceAddress",
      "outputs": [
        {
          "name": "balance",
          "type": "uint256"
        }
      ],
      "payable": false,
      "stateMutability": "view",
      "type": "function"
    },
    {
      "constant": false,
      "inputs": [
        {
          "name": "_to",
          "type": "address"
        },
        {
          "name": "_value",
          "type": "uint256"
        }
      ],
      "name": "transfer",
      "outputs": [
        {
          "name": "success",
          "type": "bool"
        }
      ],
      "payable": false,
      "stateMutability": "nonpayable",
      "type": "function"
    },
    {
      "constant": false,
      "inputs": [
        {
          "name": "_value",
          "type": "uint256"
        }
      ],
      "name": "burn",
      "outputs": [
        {
          "name": "success",
          "type": "bool"
        }
      ],
      "payable": false,
      "stateMutability": "nonpayable",
      "type": "function"
    },
    {
      "constant": false,
      "inputs": [
        {
          "name": "_value",
          "type": "uint256"
        }
      ],
      "name": "burnSC",
      "outputs": [
        {
          "name": "success",
          "type": "bool"
        }
      ],
      "payable": false,
      "stateMutability": "nonpayable",
      "type": "function"
    },
    {
      "constant": false,
      "inputs": [
        {
          "name": "target",
          "type": "address"
        },
        {
          "name": "freeze",
          "type": "bool"
        }
      ],
      "name": "freezeAccount",
      "outputs": [],
      "payable": false,
      "stateMutability": "nonpayable",
      "type": "function"
    },
    {
      "constant": false,
      "inputs": [
        {
          "name": "target",
          "type": "address"
        },
        {
          "name": "mintedAmount",
          "type": "uint256"
        }
      ],
      "name": "mintToken",
      "outputs": [],
      "payable": false,
      "stateMutability": "nonpayable",
      "type": "function"
    },
    {
      "constant": false,
      "inputs": [
        {
          "name": "target",
          "type": "address"
        }
      ],
      "name": "addressRate",
      "outputs": [
        {
          "name": "",
          "type": "uint256"
        }
      ],
      "payable": false,
      "stateMutability": "nonpayable",
      "type": "function"
    },
    {
      "constant": false,
      "inputs": [
        {
          "name": "newAddress",
          "type": "address"
        }
      ],
      "name": "setHASHMaddress",
      "outputs": [
        {
          "name": "",
          "type": "bool"
        }
      ],
      "payable": false,
      "stateMutability": "nonpayable",
      "type": "function"
    },
    {
      "constant": false,
      "inputs": [
        {
          "name": "_valuemult",
          "type": "uint256"
        },
        {
          "name": "_valuediv",
          "type": "uint256"
        }
      ],
      "name": "setHASHMrate",
      "outputs": [
        {
          "name": "",
          "type": "bool"
        }
      ],
      "payable": false,
      "stateMutability": "nonpayable",
      "type": "function"
    },
    {
      "constant": false,
      "inputs": [
        {
          "name": "_value",
          "type": "uint256"
        }
      ],
      "name": "swapToken",
      "outputs": [
        {
          "name": "success",
          "type": "bool"
        }
      ],
      "payable": false,
      "stateMutability": "nonpayable",
      "type": "function"
    },
    {
      "constant": true,
      "inputs": [],
      "name": "HASHMBalance",
      "outputs": [
        {
          "name": "balance",
          "type": "uint256"
        }
      ],
      "payable": false,
      "stateMutability": "view",
      "type": "function"
    },
    {
      "constant": false,
      "inputs": [
        {
          "name": "_value",
          "type": "uint256"
        }
      ],
      "name": "HASHMtransfer",
      "outputs": [
        {
          "name": "success",
          "type": "bool"
        }
      ],
      "payable": false,
      "stateMutability": "nonpayable",
      "type": "function"
    }
  ],
  "bytecode": "0x60806040526012600360006101000a81548160ff021916908360ff1602179055503480156200002d57600080fd5b5060405162001ffd38038062001ffd83398101806040528101908080519060200190929190805182019291906020018051820192919050505060016000803373ffffffffffffffffffffffffffffffffffffffff1673ffffffffffffffffffffffffffffffffffffffff16815260200190815260200160002060006101000a81548160ff02191690831515021790555082600481905550600454600560003373ffffffffffffffffffffffffffffffffffffffff1673ffffffffffffffffffffffffffffffffffffffff1681526020019081526020016000208190555081600190805190602001906200012292919062000145565b5080600290805190602001906200013b92919062000145565b50505050620001f4565b828054600181600116156101000203166002900490600052602060002090601f016020900481019282601f106200018857805160ff1916838001178555620001b9565b82800160010185558215620001b9579182015b82811115620001b85782518255916020019190600101906200019b565b5b509050620001c89190620001cc565b5090565b620001f191905b80821115620001ed576000816000905550600101620001d3565b5090565b90565b611df980620002046000396000f300608060405260043610610149576000357c0100000000000000000000000000000000000000000000000000000000900463ffffffff16806306fdde031461014e578063173825d9146101de57806318160ddd146102395780631ae5d14014610264578063227200401461028f57806324daceeb146102e65780632e5a94d31461033d57806330fe04ab1461038c578063313ce567146103e357806334232b8e146104145780633c049ec61461045957806342966c68146104845780634bbf3a7a146104c9578063517c94861461050e5780637065cb481461056957806370a08231146105c457806371e2f0201461061b57806379c6506814610646578063916782cf1461069357806395d89b41146106ee578063a77b35ad1461077e578063a9059cbb146107c3578063b414d4b614610828578063e724529c14610883578063e8605d22146108d2575b600080fd5b34801561015a57600080fd5b506101636108fd565b6040518080602001828103825283818151815260200191508051906020019080838360005b838110156101a3578082015181840152602081019050610188565b50505050905090810190601f1680156101d05780820380516001836020036101000a031916815260200191505b509250505060405180910390f35b3480156101ea57600080fd5b5061021f600480360381019080803573ffffffffffffffffffffffffffffffffffffffff16906020019092919050505061099b565b604051808215151515815260200191505060405180910390f35b34801561024557600080fd5b5061024e610b09565b6040518082815260200191505060405180910390f35b34801561027057600080fd5b50610279610b0f565b6040518082815260200191505060405180910390f35b34801561029b57600080fd5b506102d0600480360381019080803573ffffffffffffffffffffffffffffffffffffffff169060200190929190505050610b15565b6040518082815260200191505060405180910390f35b3480156102f257600080fd5b506102fb610be9565b604051808273ffffffffffffffffffffffffffffffffffffffff1673ffffffffffffffffffffffffffffffffffffffff16815260200191505060405180910390f35b34801561034957600080fd5b506103726004803603810190808035906020019092919080359060200190929190505050610c0f565b604051808215151515815260200191505060405180910390f35b34801561039857600080fd5b506103cd600480360381019080803573ffffffffffffffffffffffffffffffffffffffff169060200190929190505050610c80565b6040518082815260200191505060405180910390f35b3480156103ef57600080fd5b506103f8610cc9565b604051808260ff1660ff16815260200191505060405180910390f35b34801561042057600080fd5b5061043f60048036038101908080359060200190929190505050610cdc565b604051808215151515815260200191505060405180910390f35b34801561046557600080fd5b5061046e610e37565b6040518082815260200191505060405180910390f35b34801561049057600080fd5b506104af60048036038101908080359060200190929190505050610f92565b604051808215151515815260200191505060405180910390f35b3480156104d557600080fd5b506104f4600480360381019080803590602001909291905050506110ed565b604051808215151515815260200191505060405180910390f35b34801561051a57600080fd5b5061054f600480360381019080803573ffffffffffffffffffffffffffffffffffffffff169060200190929190505050611209565b604051808215151515815260200191505060405180910390f35b34801561057557600080fd5b506105aa600480360381019080803573ffffffffffffffffffffffffffffffffffffffff1690602001909291905050506112ac565b604051808215151515815260200191505060405180910390f35b3480156105d057600080fd5b50610605600480360381019080803573ffffffffffffffffffffffffffffffffffffffff16906020019092919050505061141b565b6040518082815260200191505060405180910390f35b34801561062757600080fd5b50610630611433565b6040518082815260200191505060405180910390f35b34801561065257600080fd5b50610691600480360381019080803573ffffffffffffffffffffffffffffffffffffffff16906020019092919080359060200190929190505050611439565b005b34801561069f57600080fd5b506106d4600480360381019080803573ffffffffffffffffffffffffffffffffffffffff169060200190929190505050611615565b604051808215151515815260200191505060405180910390f35b3480156106fa57600080fd5b50610703611635565b6040518080602001828103825283818151815260200191508051906020019080838360005b83811015610743578082015181840152602081019050610728565b50505050905090810190601f1680156107705780820380516001836020036101000a031916815260200191505b509250505060405180910390f35b34801561078a57600080fd5b506107a9600480360381019080803590602001909291905050506116d3565b604051808215151515815260200191505060405180910390f35b3480156107cf57600080fd5b5061080e600480360381019080803573ffffffffffffffffffffffffffffffffffffffff16906020019092919080359060200190929190505050611844565b604051808215151515815260200191505060405180910390f35b34801561083457600080fd5b50610869600480360381019080803573ffffffffffffffffffffffffffffffffffffffff1690602001909291905050506118b2565b604051808215151515815260200191505060405180910390f35b34801561088f57600080fd5b506108d0600480360381019080803573ffffffffffffffffffffffffffffffffffffffff1690602001909291908035151590602001909291905050506118d2565b005b3480156108de57600080fd5b506108e76119f3565b6040518082815260200191505060405180910390f35b60018054600181600116156101000203166002900480601f0160208091040260200160405190810160405280929190818152602001828054600181600116156101000203166002900480156109935780601f1061096857610100808354040283529160200191610993565b820191906000526020600020905b81548152906001019060200180831161097657829003601f168201915b505050505081565b60008060003373ffffffffffffffffffffffffffffffffffffffff1673ffffffffffffffffffffffffffffffffffffffff16815260200190815260200160002060009054906101000a900460ff1615156109f457600080fd5b6000808373ffffffffffffffffffffffffffffffffffffffff1673ffffffffffffffffffffffffffffffffffffffff16815260200190815260200160002060009054906101000a900460ff1615610b045760008060008473ffffffffffffffffffffffffffffffffffffffff1673ffffffffffffffffffffffffffffffffffffffff16815260200190815260200160002060006101000a81548160ff0219169083151502179055507f573f8b697fb02eea64e5bb95dc7d0d06498fbc3d35ec94b4239327afee00777182604051808273ffffffffffffffffffffffffffffffffffffffff1673ffffffffffffffffffffffffffffffffffffffff16815260200191505060405180910390a1600190505b919050565b60045481565b60095481565b600080600560008473ffffffffffffffffffffffffffffffffffffffff1673ffffffffffffffffffffffffffffffffffffffff16815260200190815260200160002054905060045460648202811515610b6a57fe5b046007819055507fbd4c416e1b9e8f7b3bc813e0734850754924118b47fabc0346f5affc4837dd2583600754604051808373ffffffffffffffffffffffffffffffffffffffff1673ffffffffffffffffffffffffffffffffffffffff1681526020018281526020019250505060405180910390a1600754915050919050565b600860009054906101000a900473ffffffffffffffffffffffffffffffffffffffff1681565b60008060003373ffffffffffffffffffffffffffffffffffffffff1673ffffffffffffffffffffffffffffffffffffffff16815260200190815260200160002060009054906101000a900460ff161515610c6857600080fd5b8260098190555081600a819055506001905092915050565b6000600560008373ffffffffffffffffffffffffffffffffffffffff1673ffffffffffffffffffffffffffffffffffffffff168152602001908152602001600020549050919050565b600360009054906101000a900460ff1681565b60008060003373ffffffffffffffffffffffffffffffffffffffff1673ffffffffffffffffffffffffffffffffffffffff16815260200190815260200160002060009054906101000a900460ff161515610d3557600080fd5b81600560003073ffffffffffffffffffffffffffffffffffffffff1673ffffffffffffffffffffffffffffffffffffffff1681526020019081526020016000205410151515610d8357600080fd5b81600560003073ffffffffffffffffffffffffffffffffffffffff1673ffffffffffffffffffffffffffffffffffffffff16815260200190815260200160002060008282540392505081905550816004600082825403925050819055503073ffffffffffffffffffffffffffffffffffffffff167fcc16f5dbb4873280815c1ee09dbd06736cffcc184412cf7a71a0fdb75d397ca5836040518082815260200191505060405180910390a260019050919050565b6000806000803373ffffffffffffffffffffffffffffffffffffffff1673ffffffffffffffffffffffffffffffffffffffff16815260200190815260200160002060009054906101000a900460ff161515610e9157600080fd5b600860009054906101000a900473ffffffffffffffffffffffffffffffffffffffff1673ffffffffffffffffffffffffffffffffffffffff166330fe04ab306040518263ffffffff167c0100000000000000000000000000000000000000000000000000000000028152600401808273ffffffffffffffffffffffffffffffffffffffff1673ffffffffffffffffffffffffffffffffffffffff168152602001915050602060405180830381600087803b158015610f4e57600080fd5b505af1158015610f62573d6000803e3d6000fd5b505050506040513d6020811015610f7857600080fd5b810190808051906020019092919050505090508091505090565b60008060003373ffffffffffffffffffffffffffffffffffffffff1673ffffffffffffffffffffffffffffffffffffffff16815260200190815260200160002060009054906101000a900460ff161515610feb57600080fd5b81600560003373ffffffffffffffffffffffffffffffffffffffff1673ffffffffffffffffffffffffffffffffffffffff168152602001908152602001600020541015151561103957600080fd5b81600560003373ffffffffffffffffffffffffffffffffffffffff1673ffffffffffffffffffffffffffffffffffffffff16815260200190815260200160002060008282540392505081905550816004600082825403925050819055503373ffffffffffffffffffffffffffffffffffffffff167fcc16f5dbb4873280815c1ee09dbd06736cffcc184412cf7a71a0fdb75d397ca5836040518082815260200191505060405180910390a260019050919050565b60008082600560003373ffffffffffffffffffffffffffffffffffffffff1673ffffffffffffffffffffffffffffffffffffffff168152602001908152602001600020541015151561113e57600080fd5b600660003373ffffffffffffffffffffffffffffffffffffffff1673ffffffffffffffffffffffffffffffffffffffff16815260200190815260200160002060009054906101000a900460ff1615151561119757600080fd5b6111a23330856119f9565b600a5460095484028115156111b357fe5b0490506111c03382611cc8565b7fc05f1b0fbda88d52bc12584335e5d1b4fdc1759b94508b0be108532f0a7623bd8382604051808381526020018281526020019250505060405180910390a16001915050919050565b60008060003373ffffffffffffffffffffffffffffffffffffffff1673ffffffffffffffffffffffffffffffffffffffff16815260200190815260200160002060009054906101000a900460ff16151561126257600080fd5b81600860006101000a81548173ffffffffffffffffffffffffffffffffffffffff021916908373ffffffffffffffffffffffffffffffffffffffff16021790555060019050919050565b60008060003373ffffffffffffffffffffffffffffffffffffffff1673ffffffffffffffffffffffffffffffffffffffff16815260200190815260200160002060009054906101000a900460ff16151561130557600080fd5b6000808373ffffffffffffffffffffffffffffffffffffffff1673ffffffffffffffffffffffffffffffffffffffff16815260200190815260200160002060009054906101000a900460ff1615156114165760016000808473ffffffffffffffffffffffffffffffffffffffff1673ffffffffffffffffffffffffffffffffffffffff16815260200190815260200160002060006101000a81548160ff0219169083151502179055507f83816cf3e38e624df946c11b7c2432c2f9e3d504aef4bea7a67a4a95a7e9770182604051808273ffffffffffffffffffffffffffffffffffffffff1673ffffffffffffffffffffffffffffffffffffffff16815260200191505060405180910390a1600190505b919050565b60056020528060005260406000206000915090505481565b60075481565b6000803373ffffffffffffffffffffffffffffffffffffffff1673ffffffffffffffffffffffffffffffffffffffff16815260200190815260200160002060009054906101000a900460ff16151561149057600080fd5b600660008373ffffffffffffffffffffffffffffffffffffffff1673ffffffffffffffffffffffffffffffffffffffff16815260200190815260200160002060009054906101000a900460ff161515156114e957600080fd5b80600560008473ffffffffffffffffffffffffffffffffffffffff1673ffffffffffffffffffffffffffffffffffffffff16815260200190815260200160002060008282540192505081905550806004600082825401925050819055503073ffffffffffffffffffffffffffffffffffffffff16600073ffffffffffffffffffffffffffffffffffffffff167fddf252ad1be2c89b69c2b068fc378daa952ba7f163c4a11628f55a4df523b3ef836040518082815260200191505060405180910390a38173ffffffffffffffffffffffffffffffffffffffff163073ffffffffffffffffffffffffffffffffffffffff167fddf252ad1be2c89b69c2b068fc378daa952ba7f163c4a11628f55a4df523b3ef836040518082815260200191505060405180910390a35050565b60006020528060005260406000206000915054906101000a900460ff1681565b60028054600181600116156101000203166002900480601f0160208091040260200160405190810160405280929190818152602001828054600181600116156101000203166002900480156116cb5780601f106116a0576101008083540402835291602001916116cb565b820191906000526020600020905b8154815290600101906020018083116116ae57829003601f168201915b505050505081565b60008060003373ffffffffffffffffffffffffffffffffffffffff1673ffffffffffffffffffffffffffffffffffffffff16815260200190815260200160002060009054906101000a900460ff16151561172c57600080fd5b81600860009054906101000a900473ffffffffffffffffffffffffffffffffffffffff1673ffffffffffffffffffffffffffffffffffffffff166330fe04ab306040518263ffffffff167c0100000000000000000000000000000000000000000000000000000000028152600401808273ffffffffffffffffffffffffffffffffffffffff1673ffffffffffffffffffffffffffffffffffffffff168152602001915050602060405180830381600087803b1580156117ea57600080fd5b505af11580156117fe573d6000803e3d6000fd5b505050506040513d602081101561181457600080fd5b810190808051906020019092919050505011151561183157600080fd5b61183b3383611cc8565b60019050919050565b60008060003373ffffffffffffffffffffffffffffffffffffffff1673ffffffffffffffffffffffffffffffffffffffff16815260200190815260200160002060009054906101000a900460ff16151561189d57600080fd5b6118a83384846119f9565b6001905092915050565b60066020528060005260406000206000915054906101000a900460ff1681565b6000803373ffffffffffffffffffffffffffffffffffffffff1673ffffffffffffffffffffffffffffffffffffffff16815260200190815260200160002060009054906101000a900460ff16151561192957600080fd5b80600660008473ffffffffffffffffffffffffffffffffffffffff1673ffffffffffffffffffffffffffffffffffffffff16815260200190815260200160002060006101000a81548160ff0219169083151502179055507f48335238b4855f35377ed80f164e8c6f3c366e54ac00b96a6402d4a9814a03a58282604051808373ffffffffffffffffffffffffffffffffffffffff1673ffffffffffffffffffffffffffffffffffffffff168152602001821515151581526020019250505060405180910390a15050565b600a5481565b600073ffffffffffffffffffffffffffffffffffffffff168273ffffffffffffffffffffffffffffffffffffffff1614151515611a3557600080fd5b80600560008573ffffffffffffffffffffffffffffffffffffffff1673ffffffffffffffffffffffffffffffffffffffff1681526020019081526020016000205410151515611a8357600080fd5b600560008373ffffffffffffffffffffffffffffffffffffffff1673ffffffffffffffffffffffffffffffffffffffff1681526020019081526020016000205481600560008573ffffffffffffffffffffffffffffffffffffffff1673ffffffffffffffffffffffffffffffffffffffff168152602001908152602001600020540110151515611b1257600080fd5b600660008473ffffffffffffffffffffffffffffffffffffffff1673ffffffffffffffffffffffffffffffffffffffff16815260200190815260200160002060009054906101000a900460ff16151515611b6b57600080fd5b600660008373ffffffffffffffffffffffffffffffffffffffff1673ffffffffffffffffffffffffffffffffffffffff16815260200190815260200160002060009054906101000a900460ff16151515611bc457600080fd5b80600560008573ffffffffffffffffffffffffffffffffffffffff1673ffffffffffffffffffffffffffffffffffffffff1681526020019081526020016000206000828254039250508190555080600560008473ffffffffffffffffffffffffffffffffffffffff1673ffffffffffffffffffffffffffffffffffffffff168152602001908152602001600020600082825401925050819055508173ffffffffffffffffffffffffffffffffffffffff168373ffffffffffffffffffffffffffffffffffffffff167fddf252ad1be2c89b69c2b068fc378daa952ba7f163c4a11628f55a4df523b3ef836040518082815260200191505060405180910390a3505050565b600860009054906101000a900473ffffffffffffffffffffffffffffffffffffffff1673ffffffffffffffffffffffffffffffffffffffff1663a9059cbb83836040518363ffffffff167c0100000000000000000000000000000000000000000000000000000000028152600401808373ffffffffffffffffffffffffffffffffffffffff1673ffffffffffffffffffffffffffffffffffffffff16815260200182815260200192505050602060405180830381600087803b158015611d8d57600080fd5b505af1158015611da1573d6000803e3d6000fd5b505050506040513d6020811015611db757600080fd5b81019080805190602001909291905050505050505600a165627a7a723058205b8ab62fbbe116e2f4fb9c74af4ee595bd046f4957e7618d545a1d1bb12eb1650029",
  "source": "pragma solidity >=0.4.22 <0.6.0;\n\n\n\nlibrary SafeMath {\n function mul(uint256 a, uint256 b) internal pure returns (uint256) {\n    if (a == 0) {\n      return 0;\n    }\n    uint256 c = a * b;\n    assert(c / a == b);\n    return c;\n  }\n\n  function div(uint256 a, uint256 b) internal pure returns (uint256) {\n    // assert(b > 0); // Solidity automatically throws when dividing by 0\n    uint256 c = a / b;\n    // assert(a == b * c + a % b); // There is no case in which this doesn't hold\n    return c;\n  }\n\n  function sub(uint256 a, uint256 b) internal pure returns (uint256) {\n    assert(b <= a);\n    return a - b;\n  }\n\n  function add(uint256 a, uint256 b) internal pure returns (uint256) {\n    uint256 c = a + b;\n    assert(c >= a);\n    return c;\n  }\n}\n\n\ncontract owned {\n\n    mapping(address => bool) public ownerslist;\n\n    constructor() public {\n        ownerslist[msg.sender] = true;\n    }\n\n    event OwnerslistAddressAdded(address addr);\n    event OwnerslistAddressRemoved(address addr);\n\n\n    modifier onlyOwner() {\n        require(ownerslist[msg.sender]);\n        _;\n    }\n\n\n    \n     ///@dev add an address to the ownerslist\n     ///@param addr address\n     ///@return true if the address was added to the ownerslist, false if the address was already in the ownerslist \n    \n    function addOwner(address addr) onlyOwner public returns(bool success) {\n        if (!ownerslist[addr]) {\n            ownerslist[addr] = true;\n            emit OwnerslistAddressAdded(addr);\n            success = true; \n        }\n    }\n\n\n\n    \n     ///@dev remove an address from the ownerslist\n     ///@param addr address\n     ///@return true if the address was removed from the ownerslist, false if the address wasn't in the ownerslist in the first place \n    \n    function removeOwner(address addr) onlyOwner public returns(bool success) {\n        if (ownerslist[addr]) {\n            ownerslist[addr] = false;\n            emit OwnerslistAddressRemoved(addr);\n            success = true;\n        }\n    }\n  \n  \n}\n  \n\n\ncontract HASHMinterface { \n    \nfunction transfer(address _to, uint256 _value) public returns (bool success); \nfunction balanceAddress(address _owner) public view returns (uint256 balance);\n}\n\ncontract HMREPSWAP is owned {\n    \n    using SafeMath for uint256;\n    \n    // Public variables of the token\n    string public name;\n    string public symbol;\n    uint8 public decimals = 18; // 18 decimals is the strongly suggested default, avoid changing it\n    uint256 public totalSupply;\n\n    // This creates an array with all balances\n    mapping (address => uint256) public balanceOf;\n    mapping (address => bool) public frozenAccount;\n\n    // This generates a public event on the blockchain that will notify clients\n    event Transfer(address indexed from, address indexed to, uint256 value);\n    // This notifies clients about the amount burnt\n    event Burn(address indexed from, uint256 value);\n    //This generates a public event on the blockchain that will notify clients \n    event FrozenFunds(address target, bool frozen);\n    // This generates a public event on the blockchain that will notify clients\n    event ReputationUserRate(address target, uint256 rate);\n\n\n\n     /// @notice Constrctor function: Initializes contract with initial supply tokens to the creator of the contract\n     ///constructor(uint256 initialSupply, string memory tokenName, string memory tokenSymbol) public {\n    constructor(uint256 initialSupply, string memory tokenName, string memory tokenSymbol) public {\n        totalSupply = initialSupply; //initialSupply * 1 ** uint256(decimals);  // Update total supply with the decimal amount\n        balanceOf[msg.sender] = totalSupply;                    // Give the creator all initial tokens\n        name = tokenName;                                       // Set the name for display purposes\n        symbol = tokenSymbol;                                   // Set the symbol for display purposes\n    }\n    \n    \n     /// @notice Gets the balance of the specified address.\n     /// @param _owner The address to query the the balance of.\n     /// @return An uint256 representing the amount owned by the passed address.\n    function balanceAddress(address _owner) public view returns (uint256 balance) {\n    return balanceOf[_owner];\n    \n    }\n\n\n    /* Internal transfer, only can be called by this contract */\n    function _transfer(address _from, address _to, uint _value) internal {\n        require (_to != address(0x0));                          // Prevent transfer to 0x0 address. Use burn() instead\n        require (balanceOf[_from] >= _value);                   // Check if the sender has enough\n        require (balanceOf[_to] + _value >= balanceOf[_to]);    // Check for overflows\n        require(!frozenAccount[_from]);                         // Check if sender is frozen\n        require(!frozenAccount[_to]);                           // Check if recipient is frozen\n        balanceOf[_from] -= _value;                             // Subtract from the sender\n        balanceOf[_to] += _value;                               // Add the same to the recipient\n        emit Transfer(_from, _to, _value);\n    }\n\n\n   \n     /// @notice Transfer tokens: Send `_value` tokens to `_to` from your account\n     /// @param _to The address of the recipient\n     /// @param _value the amount to send\n    function transfer(address _to, uint256 _value) onlyOwner public returns (bool success) {\n        _transfer(msg.sender, _to, _value);\n        return true;\n    }\n    \n\n\n     /// @notice Destroy tokens: Remove `_value` tokens from the system irreversibly\n     /// @param _value uint256 the amount of money to burn\n    function burn(uint256 _value) onlyOwner public returns (bool success) {\n        require(balanceOf[msg.sender] >= _value);   // Check if the sender has enough\n        balanceOf[msg.sender] -= _value;            // Subtract from the sender\n        totalSupply -= _value;                      // Updates totalSupply\n        emit Burn(msg.sender, _value);\n        return true;\n    }\n    \n    \n      /// @notice Destroy tokens: Remove `_value` tokens from the system irreversibly\n     /// @param _value uint256 the amount of money to burn\n    function burnSC(uint256 _value) onlyOwner public returns (bool success) {\n        require(balanceOf[address(this)] >= _value);   // Check if the sender has enough\n        balanceOf[address(this)] -= _value;            // Subtract from the sender\n        totalSupply -= _value;                        // Updates totalSupply\n        emit Burn(address(this), _value);\n        return true;\n    }\n\n\n    \n     /// @notice `freeze? Prevent | Allow` `target` from sending & receiving tokens\n     /// @param target Address to be frozen\n     /// @param freeze either to freeze it or not\n    function freezeAccount(address target, bool freeze) onlyOwner public {\n        frozenAccount[target] = freeze;\n        emit FrozenFunds(target, freeze);\n    }\n    \n    \n    \n     /// @notice Create `mintedAmount` tokens and send it to `target`\n     /// @param target Address to receive the tokens\n     /// @param mintedAmount the amount of tokens it will receive\n    function mintToken(address target, uint256 mintedAmount) onlyOwner public {\n        require(!frozenAccount[target]);\n        balanceOf[target] += mintedAmount;\n        totalSupply += mintedAmount;\n        emit Transfer(address(0), address(this), mintedAmount);\n        emit Transfer(address(this), target, mintedAmount);\n    }\n    \n       uint256 public userRate;\n      /// @notice Calculate the rate of the reputation that a address has\n      /// @param target Address of the user\n      //uint256 userRate = div(mul(userBalance, 100), totalSupply);\n    function addressRate(address target) public returns (uint256) {\n        uint256 userBalance = balanceOf[target];\n        userRate = (userBalance*100)/totalSupply;\n        emit ReputationUserRate(target, userRate);\n        return userRate;\n\n    }\n    \n    \n    \n    \n    //SWAP REPUTATION TO SECURITY\n    \n    address public HASHMaddress; \n    uint256 public HASHMratemult;\n    uint256 public HASHMratediv;\n    \n     //This generates a public event on the blockchain that will notify clients \n    event SwapToken(uint256 _reputationToken, uint256 _securityToken);\n    \n     ///@dev Set de HASHM Security Token address\n     ///@param newAddress address\n     ///@return true if the address has been set correctly\n    \n    function setHASHMaddress(address newAddress) onlyOwner public returns (bool) {\n        HASHMaddress = newAddress;\n        return true;\n    }\n    \n    \n    \n    \n     ///@dev Set de HASHM rate in order to modify the HASHM security token that has been received.\n     ///@param _valuemult uint256\n     ///@param _valuediv uint256\n     ///@return true if the value has been set correctly\n    \n    function setHASHMrate(uint256 _valuemult, uint256 _valuediv) onlyOwner public returns (bool) {\n        HASHMratemult = _valuemult;\n        HASHMratediv = _valuediv;\n        return true;\n    }\n    \n\n    \n     \n     ///@dev Swap function in order to send reputation to the ERC20 reputation contract and receive Security token inside this contract. \n     ///@param _value uint256\n     ///@return true if the swap has been done correctly\n     //uint256 HASHM = div(mult(_value, HASHMratemult), HASHMratediv);\n    \n    function swapToken(uint256 _value) public returns (bool success) {\n        require(balanceOf[msg.sender] >= _value);\n        require(!frozenAccount[msg.sender]);\n        _transfer(msg.sender, address(this), _value);\n        uint256 HASHM = (_value*HASHMratemult)/HASHMratediv;\n        receiveSecurity(msg.sender, HASHM);\n        emit SwapToken(_value, HASHM);\n        return true;\n    }\n        \n    \n    \n    \n    \n     ///@dev Internal function to sent security token in the escrow of the reputation erc20 contract \n     ///@param _to address, _value uint256\n     ///@return true if the swap has been done correctly\n    \n    function receiveSecurity(address _to, uint256 _value) internal {\n        HASHMinterface(HASHMaddress).transfer(_to, _value);\n       \n    }\n      \n      \n      \n     \n     ///@dev Function to check de security token balance in the smart contratct \n     ///@return balanceSec, balance of security token that the reputation smart contact have.\n    \n    function HASHMBalance() onlyOwner public view returns (uint256 balance) {\n         uint256 balanceSec = HASHMinterface(HASHMaddress).balanceAddress(address(this));\n         return balanceSec;\n    }  \n     \n     \n     \n     \n      \n     ///@dev Function to send token security in the smart contract to a msg.sender. \n     ///@param _value uint256\n     ///@return true if it has been done correctly\n         \n    function HASHMtransfer(uint256 _value) onlyOwner public returns (bool success) {\n          require(HASHMinterface(HASHMaddress).balanceAddress(address(this)) > _value);\n          receiveSecurity(msg.sender, _value);\n          return true;\n    \n    }\n    \n    \n  \n    \n     \n}\n",
  "sourcePath": "/Users/jordiguirao/Desktop/HashMarket-SmartContracts 3/HashMarket-truffle/contracts/HMREPSWAP.sol",
  "compiler": {
    "name": "solc",
    "version": "0.4.24+commit.e67f0147.Emscripten.clang"
  },
  "schemaVersion": "2.0.1",
  "updatedAt": "2019-06-26T10:46:41.732Z"
}